:020000040808EA
:10000000988A01206D030808ED4A0808D5420808BF
:10001000CD49080831230808598A08080000000063
:10002000000000000000000000000000B502080809
:10003000D93108080000000009030808117A0808EF
:100040008703080887030808870308088703080848
:100050008703080887030808870308088703080838
:100060008703080887030808870308088703080828
:100070008703080887030808870308088703080818
:100080008703080887030808870308088703080808
:1000900087030808870308088703080887030808F8
:1000A00087030808870308088703080887030808E8
:1000B00087030808870308088703080887030808D8
:1000C00087030808870308088703080887030808C8
:1000D0008703080871800808D58008085981080836
:1000E00087030808870308088703080887030808A8
:1000F0008703080887030808870308088703080898
:100100008703080815630808870308088703080899
:10011000617D080887030808870308088703080823
:100120008703080887030808870308088703080867
:100130008703080887030808870308088703080857
:100140008703080887030808870308088703080847
:100150008703080887030808870308088703080837
:100160008703080887030808870308088703080827
:100170008703080887030808870308088703080817
:10018000870308088703080800F002F800F07BF8EE
:100190000AA090E8000C82448344AAF10107DA45E2
:1001A00001D100F070F8AFF2090EBAE80F0013F0B9
:1001B000010F18BFFB1A43F001031847C4350100B3
:1001C000E43501000A444FF0000C10F8013B13F035
:1001D000070408BF10F8014B1D1108BF10F8015BA0
:1001E000641E05D010F8016B641E01F8016BF9D193
:1001F00013F0080F1EBF10F8014BAD1C0C1B09D1EA
:100200006D1E58BF01F801CBFAD505E014F8016B5B
:1002100001F8016B6D1EF9D59142D6D370470000ED
:100220000023002400250026103A28BF78C1FBD8FF
:10023000520728BF30C148BF0B60704766290EF0D7
:100240007787642900F06681752900F06381782939
:1002500000F09C81732900F09E87002070471FB535
:100260000EF061FF01F03AF80400002000210EF0CA
:1002700021FC401C6060002000210EF031FCE06099
:100280001FBD10B510BD01F037F91146FFF7E7FFAC
:100290000AF01EFB01F055F903B4FFF7F2FF03BCAF
:1002A00009F014F930BF72B6704762B6704780F338
:1002B000088870472A4B19680868B0E8F04F80F347
:1002C0000988BFF36F8F4FF0000080F311887047EB
:1002D0000000000006480068006880F3088862B6E5
:1002E00061B6BFF34F8FBFF36F8F00DF00BF00BF5A
:1002F00008ED00E0DFF80C00016841F470010160D6
:10030000704700BF88ED00E0EFF30980BFF36F8F07
:10031000134B1A681EF0100F08BF20ED108A20E959
:10032000F04F106008B44FF0500080F31188BFF315
:100330004F8FBFF36F8F0DF013FB4FF0000080F372
:10034000118808BC19680868B0E8F04F1EF0100F5B
:1003500008BFB0EC108A80F30988BFF36F8F704735
:10036000E4010020EFF30580704700000948804752
:1003700009480047FEE7FEE7FEE7FEE7FEE7FEE787
:10038000FEE7FEE7FEE7FEE704480549054A064B9F
:1003900070470000257A080889010808987E012026
:1003A000988A01209882012098820120704710B518
:1003B0004C1084EA530404D54042C1F1000138BF17
:1003C000491E1B4204D55242C3F1000338BF5B1ED5
:1003D00000F0CAFB14F0804F04D04042C1F100018C
:1003E00038BF491E14F0004F04D05242C3F100033D
:1003F00038BF5B1E10BD00000FB4044910B503AA3E
:10040000029800F0CDFE10BC5DF814FBA4010020A2
:100410000FB41CB5084B06AA7B44694600900598AA
:1004200000F087FE04460020694600F095FE204655
:100430001CBC5DF814FB00003D0D00000FB47CB542
:100440000C0009AA009001D02044401E084B7B44B8
:1004500069460190089800F06CFE05461CB100202A
:10046000694600F079FE28467CBC5DF814FB00006C
:10047000110D000070B5044685690068C10601D5FC
:10048000302600E02026C00707D070BDD4E9012146
:1004900030469047206A401C20626D1EF6D570BD24
:1004A00070B5044685690078C00707D170BDD4E9EE
:1004B000012120209047206A401C20626D1EF6D545
:1004C00070BD70B50C460546012A05D02878800617
:1004D00000D5EA69002302E0012305E05B1C93429A
:1004E00002D2E05C0028F9D1A869E618C01AA86118
:1004F000286A184428622846FFF7BCFF04E0D5E9C3
:10050000012114F8010B9047B442F8D32846FFF7B5
:10051000C7FF70BD2DE9F04106460024106875291B
:10052000314616A510D0AFF30080002802DA404211
:1005300013A507E031688A0701D512A502E0490733
:1005400004D511A5012401E0AFF3008000210A22A7
:1005500006F1240709E0B0FBF2FCB0FBF2F302FB6A
:100560001C00303078541846491C0028F3D123462B
:100570002A463046BDE8F04100F06DBB00000000A7
:100580002D0000002B0000002000000070B5044684
:100590000D4621461068AFF300802188090502D579
:1005A0000F4A7A4402E00E4A7A440E32002104F1E6
:1005B000240305E000F00F060009965D5E54491C17
:1005C0000028F7D120780023000704D5702D02D031
:1005D00009B1022311322046BDE8704000F03BBB58
:1005E000EE2E01002DE9F05F894604464FF0000A27
:1005F000DFF874B1FB44C0F820A02046E1688847CA
:10060000002874D0252806D0D4E901219047206A1B
:10061000401C2062F1E700265F462046E1688847DB
:100620002028054607DB312D05D2781910F8200C5B
:1006300008B10643F1E7B00701D526F00406C4F877
:100640001CA00027C4F818A02A2D09D0284608F0BD
:1006500036FF38B304EB8708303DC8F8185019E06E
:1006600059F8041B204604EB87029161E168884732
:10067000012F054618D1E069002820DA26F020066F
:100680001DE0D8F8180000EB800005EB4000303882
:10069000C8F818002046E1688847054608F00FFFB3
:1006A0000028EED1012F0AD02E2D08D12046E16876
:1006B00088477F1C0546022F46F02006C4DBA06950
:1006C000002803DA404246F00106A061F00701D09D
:1006D00026F010066C2D0BD0682D09D04C2D39D08A
:1006E0006A2D35D0742D35D07A2D33D016E038E010
:1006F000E1682F4620468847B842054609D16C2F4D
:1007000026D04FF48060E1680643204688470546BE
:1007100004E06C2F1AD04FF4807006430DB3A5F19E
:100720004100192802D8203546F400664A46294679
:10073000204626604E46FFF781FD80B101280BD090
:10074000F61D26F0070000F1080956E74020E4E70F
:100750008020D8E70020D6E706F104094DE72846B7
:1007600052E7206ABDE8F09FC42E010070B506462E
:1007700000F0F6F90468054630460A22002100F030
:1007800070FD2C6070BD2DE9F05F93460F468046EA
:100790000446002600F0E4F9D0F80090824614F8F0
:1007A000015B2DB100F0D4F90068405DC007F6D1BF
:1007B0002B2D02D02D2D1AD0641E0021CAF8001056
:1007C0005A463946204600F0FDFC014627B13868FC
:1007D000A04201D1C7F80080DAF80000022809D051
:1007E000CAF80090700505D54842BDE8F09F46F470
:1007F0008066E2E70846F8E7401ECAB210F8011F1B
:100800008A4202D00029F9D10020704730B5054650
:100810000B462A4613F8014B12F8010B08B1A0420F
:10082000F8D01CB1002802D06D1CF1E7284630BD7D
:1008300040EA0103024630B59B0710D14FF0013466
:1008400000E008C208C91D1B9D4315EAC41FF8D06B
:1008500013F0FF0102F8011B0DD01B0AF8E711F895
:10086000013B002B02F8013B05D011F8013B002BA6
:1008700002F8013BF3D130BD0022CBB210F8011BCE
:10088000994200D1421E0029F8D11046704710B598
:10089000431C02E010F8011B71B18107FAD14FF03F
:1008A000013202C88C1A8C4314EAC211F9D0C01A62
:1008B0000A0603D0C01E10BDC01A10BD0A0401D024
:1008C000801E10BD0902FCD0401E10BD40EA01038D
:1008D00070B59B072ED14FF00136042A2AD308C8E1
:1008E00010C99D1B9D43121F15EAC61517D0D8B21B
:1008F000E1B2401A50EA056110D198B2A1B2401A93
:1009000050EA05410AD123F07F4024F07F41401A8C
:1009100050EA052102D1180EA0EB146070BDA3426D
:10092000DBD018BA21BA884201D9012070BD4FF03E
:10093000FF3070BD0AB9002070BD10F8013B11F8FE
:10094000014B63B1A3420AD1521E08D010F8013BFB
:1009500011F8014B1BB1A34201D1521EEDD1181B5E
:1009600070BD032A40F2308010F0030C00F01580B7
:1009700011F8013BBCF1020F624498BF11F801CBA2
:1009800000F8013B38BF11F8013BA2F1040298BF07
:1009900000F801CB38BF00F8013B11F0030300F071
:1009A0002580083AC0F0088051F8043B083A51F815
:1009B00004CBA0E80810F5E7121D5CBF51F8043B1A
:1009C00040F8043BAFF30080D20724BF11F8013B8D
:1009D00011F801CB48BF11F8012B24BF00F8013BEF
:1009E00000F801CB48BF00F8012B704710B5203A42
:1009F000C0F00B80B1E81850203AA0E81850B1E8D8
:100A00001850A0E81850BFF4F5AF5FEA027C24BF8D
:100A1000B1E81850A0E8185044BF18C918C0BDE884
:100A200010405FEA827C24BF51F8043B40F8043B4D
:100A300008BF7047D20728BF31F8023B48BF11F802
:100A4000012B28BF20F8023B48BF00F8012B70475C
:100A500002F0FF0343EA032242EA024200F002B836
:100A60004FF000020429C0F0128010F0030C00F0D7
:100A70001B80CCF1040CBCF1020F18BF00F8012B55
:100A8000A8BF20F8022BA1EB0C0100F00DB85FEA23
:100A9000C17C24BF00F8012B00F8012B48BF00F8EF
:100AA000012B70474FF0000200B51346944696465E
:100AB000203922BFA0E80C50A0E80C50B1F1200171
:100AC000BFF4F7AF090728BFA0E80C5048BF0CC01F
:100AD0005DF804EB890028BF40F8042B08BF70477D
:100AE00048BF20F8022B11F0804F18BF00F8012BEF
:100AF000704710B5044610F0030F08BF11F0030F44
:100B000040F015804FF0013E121FC0F20E8051F8E8
:100B1000043BA3EB0E0C2CEA030C1CEACE1C08BF12
:100B200040F8043BF0D0A1F1040102F10402521E8E
:100B300008DB11F8013B002B00F8013BF7D111460F
:100B4000FFF78EFF204610BD704770477047704713
:100B500010B500F0C3FB001D10BD00BF59DF000041
:100B600000487047347E012053EA020C00F069808F
:100B70002DE9F04B4FF00006002B1FBFB3FA83F5B1
:100B800003FA05F424FA05F65E4012BF1643B2FAE2
:100B900082F502FA05F4C5F120051EBF22FA05FC14
:100BA00044EA0C04203556EA044C4FEA144418BFBA
:100BB000641C4FF000084FF00009904271EB030CE9
:100BC00039D3002919BFB1FA81F701FA07F6B0FA53
:100BD00080F700FA07F6C7F120071EBF20FA07FCCE
:100BE00046EA0C062037B6FBF4FCA7EB0507103FDE
:100BF00007F01F0BCBF120060CFA0BFB2CFA06F6C4
:100C000044BFB3460026202FA4BF5E464FF0000B22
:100C10005BEA060C08BF4FF0010B19EB0B09ABFBAD
:100C2000027C48EB0608C01B06FB02CC0BFB03CC86
:100C300071EB0C01C1E70B46024641464846BDE850
:100C4000F08B13B54FF000004FF00001AFF30080C0
:100C5000BDE81C4070472DE9F0470D469946924685
:100C6000044600F124080168880604D5E06921F0F3
:100C70001001216000E00120A84201DD471B00E0D7
:100C80000027A1697A1902EB0900081AA0612078EF
:100C9000C00602D42046FFF7EDFB002608E0D4E9A9
:100CA00001211AF806009047206A401C761C206239
:100CB0004E45F4DB2078C0060AD52046FFF7DAFB64
:100CC00006E0D4E9012130209047206A401C2062D0
:100CD000381EA7F10107F4DC07E0D4E9012118F878
:100CE00005009047206A401C2062281EA5F10105DE
:100CF000F3DC2046FFF7D4FB2078000602D5022063
:100D0000BDE8F0870120FBE770472DE9FF4F0C4657
:100D10001E464FF0FF378BB0D2E90001DDF860804E
:100D20000A908A46C1F30A5505B93D460021084696
:100D30004FF00000BAF1000F00F4400005DA00EBBC
:100D400080004FF4400101EA50004FEA9059B9F198
:100D5000010F00DDB9460A9850EA4A000ED044F669
:100D60001050A5F2FF3545432F14B8F1000F1ED0E7
:100D70007542291E1EDDC9F100021CE0B8F1010F09
:100D80004FF0000001D0302103E0F24305E0215490
:100D9000401CB042FBDB30460022002121540B995D
:100DA000C1F80880C1E900200FB0BDE8F08FBD1B7D
:100DB0006D1CDEE74A4600DA694206A800F026FB11
:100DC00006AB93E8070003AB83E8070050460A9997
:100DD00000F000FC8DE80700A0F500501F380090DF
:100DE0000398002D0ADD42F21F014A460844002301
:100DF00003A90390684600F069FE09E0A0F50050E1
:100E00004A461F38002303A90390684600F073FE8A
:100E10008DE807000004000C03D04FF0FF304108BC
:100E200000E01046B8F1000F03D0002200921546F2
:100E30001EE0751E05D400F055FA303262556D1E65
:100E4000F9D5B3460122084302D000227F1C04E0FA
:100E50002078302801D100227F1E002A099784D0F3
:100E60001DE0112D07DA00F03DFA303262556D1C9D
:100E700050EA0102F5D1084302D00098C8B10EE053
:100E80000021681E05E0235C625C63542254401E0E
:100E9000491C8142F7DBAB46A81B401E099000208D
:100EA00004F80B000B98099AC0F80880C0E9002BE1
:100EB0007AE711264FF0000857E72DE9F04F8846F2
:100EC0000446D21D22F0070191B0D1E90001CDE91D
:100ED0000A0108F0DCFA02460B98C00F01D02D2061
:100EE00007E02068810701D52B2002E0202101EADC
:100EF000C000032A099001D0072A05DB03464146BA
:100F0000204600F035FA0BE12078800601D5E06933
:100F100000E00620B8F1650F814606D0B8F1660FF3
:100F200018D0B8F1670F70D131E00020B9F1110F7E
:100F3000009001DB112301E009F101030AAA01A9D4
:100F40000CA8FFF7E2FEDDE90C70002609F10105AF
:100F5000834647E001204B4600904FF000470AAA25
:100F600001A90CA8FFF7D1FEDDE90DB00C995D4693
:100F7000002610B909F101000D18B9EB050003D4E2
:100F8000C0F1FF3609F10105A5EB09002BE0B9F12D
:100F9000010F01DA4FF001090020B9F1110F0090A3
:100FA000484601DD112300E003460AAA01A90CA866
:100FB000FFF7ABFEDDE90C704D4600268346207836
:100FC00000070AD4AB4500DA5D4601A8012D04DD17
:100FD000411911F8011C302907D04F4502DA17F1E9
:100FE000040F04DA012082460FE06D1EEEE7002FA9
:100FF00002DCED1B3E4403E0781CA84200DD7D1CB2
:10100000B81B00F1010A4FF000472078000703D415
:10101000AA4501DB4FF0FF3A0021B7F1004F0DF177
:1010200043088DF8431024D002202B23002F01DA2F
:101030007F422D230A21021EA0F1010000DC5FB1D6
:1010400097FBF1FC97FBF1F201FB1C7C17460CF1BE
:10105000300C08F801CDEEE7A8F1010003702188FB
:10106000090501D5452100E06521A0F1010800F83E
:10107000011C09980FA9A1EB0807FF1D00B1012071
:10108000411901EBEA70A1693844081A401EA061B9
:101090002078C00602D42046FFF7ECF9099828B161
:1010A000D4E901219047206A401C20622078C006C4
:1010B00022D52046FFF7DEF91EE0002E04DBB34503
:1010C00002DD01A8805D00E03020D4E901219047D5
:1010D000206A401C2062761CAAF101005FEA000A27
:1010E0000AD100F0FBF8C0680168405CD4E9012136
:1010F0009047206A401C2062281EA5F10105DCDC17
:1011000007E0D4E9012118F8010B9047206A401C40
:101110002062381EA7F10107F3DC2046FFF7C0F973
:10112000032011B041E6000001694A1C0261087801
:10113000704700B58FB0CDE9013100210591054917
:101140007944CDE9031011466846FFF74BFA0FB01A
:1011500000BD0000E5FFFFFF0A6802F8010B0A600E
:101160007047D1E900239A4202D2531C0B601070E1
:10117000704710B5436913B1AFF3008001E0FFF78A
:10118000A0F9012010BD127800F124010A7000229C
:101190004A700122EDE711684FF0FF32E9E70000E5
:1011A000074B70B50D467B44FFF7C3FF0446284646
:1011B00000F09EF910B14FF0FF3070BD204670BDB9
:1011C000FB9400002DE9F05F824615468B46002710
:1011D0000AF10104B9460078302801D09DB113E02E
:1011E00014F8010B0127782803D0582801D045B105
:1011F0000AE00DB1102D07D1002714F8010B1025BE
:1012000002E0082500E00A250026B0460EE005FBB6
:10121000080005FB06F101271FFA80F801EB1046D4
:10122000B6F5803F00D3B94614F8010B294600F00B
:10123000DFF80028EBDABBF1000F05D00FB1641E18
:1012400000E05446CBF80040B9F1000F06D0FFF79C
:1012500087FC02210160C81EBDE8F09F48EA0640F5
:10126000FAE72DE9F04791460F46804604460026EE
:1012700014F8015B2DB1FFF76BFC0068405DC007FF
:10128000F6D12B2D02D02D2D18D0641E4A4639469A
:101290002046FFF797FF27B13968A14201D1C7F86F
:1012A00000804FF0020471050BD54042002803DD99
:1012B000FFF756FC0460A007BDE8F08746F480669F
:1012C000E4E70028F8DAFFF74BFC04606FF0004019
:1012D000F2E7000000487047347E01200048704764
:1012E000547E012030B5B0F10A024FEA900E71F140
:1012F00000034EEA817EB0EB0E0061EB91014FEAF4
:10130000101E4EEA017E10EB0E0041EB11114FEA68
:10131000102E4EEA016E10EB0E0041EB11214FEA48
:10132000104E4EEA014E10EB0E0041EB11414018F9
:1013300041F100014FEAD00040EA41704FEAD1018B
:1013400010EB80054FEA810444EA907444EB0104F9
:101350006D1944EB0404521BA3414FF0000348BF36
:101360000A3200D530BD401C41F1000130BD000003
:101370002DE9F0411F46044603260168072A01F4BF
:10138000006004DB08B116A505E016A503E008B16E
:1013900015A500E015A521F010002060A069C01E71
:1013A000A0610FB1401EA0612046FFF763F84FB166
:1013B000D4E9012138469047206A401C2062C01CB5
:1013C000206206E0206AFAE7D4E9012115F8010B52
:1013D0009047761EF8D22046FFF762F8BDE8F0810C
:1013E0004E414E006E616E00494E4600696E6600C9
:1013F0003A2800D2303820F02002412A01D3A2F14D
:101400003700884201D34FF0FF3070472DE9F04795
:10141000814616468AB0354878440DC88DE80D00DF
:1014200032487844801C03AC0DC884E80D0041F6B6
:101430009B300844372190FBF1F290FBF1F5A5F1C8
:10144000800501FB12041B3C02D56442012000E030
:101450000020DFF898A080460027FA44AAF1BE0ACF
:101460000EE0E0070AD03246684607EB4701012349
:101470000AEB810100F03FFB8DE8070064107F1C40
:10148000002CEED1194F7F44AE3F19E0E80715D08C
:1014900007EB04100DF1180A90E80E008AE80E0020
:1014A000C068F04201D1981908903246012306A97C
:1014B00003A800F020FB03AB83E807006D10641C59
:1014C000002DE3D14FF0010332466946B8F1000F19
:1014D00003A802D000F0FAFA01E000F00CFBC9E921
:1014E0000001C9F808200AB0BDE8F08730210100EA
:1014F000007B00F0800070477546FFF7EBFEAE46BC
:1015000005006946534620F00700854618B020B50F
:10151000FEF73AFFBDE820404FF000064FF000070D
:101520004FF000084FF0000B21F00701AC46ACE88B
:10153000C009ACE8C009ACE8C009ACE8C0098D46F8
:10154000704710B50446AFF300802046BDE8104058
:10155000FEF7A2BE4FF0013C50F8042B51F8043BBB
:101560009A4221D1A2EB0C03934313EACC1317D177
:1015700050F8042B51F8043B9A4215D1A2EB0C030E
:10158000934313EACC130BD150F8042B51F8043BCE
:101590009A4209D1A2EB0C03934313EACC13DBD09C
:1015A0004FF00000704700BFD01A01BAB1FA81F1C4
:1015B00001F0180122FA01F0CB40C1F12001DBB2A9
:1015C000C0B2C01A2CFA01F3D11A914311EAC31127
:1015D000E6D170475FEA400C08BF91F0000F4FEA78
:1015E0008C234FEAC12243EA51514FEA1C5018BFE5
:1015F00000F5F0404FEA300018BF41F000415FEACB
:101600006C5C00F02980BCF1FF3F08BF40F08040D7
:101610007047130C06BF12044FF0100C4FF0000C73
:10162000130E04BF12020CF1080C130F04BF1201B9
:101630000CF1040C930F04BF92000CF1020CD30FB9
:1016400004BF52000CF1010C11464FF00002A0F152
:101650001F00A0EB0C00704711F0004F08BF70474F
:1016600031F000413FF4D5AF0B0C06BF09044FF039
:10167000100C4FF0000C0B0E04BF09020CF1080C0B
:101680000B0F04BF09010CF1040C8B0F04BF890080
:101690000CF1020CCB0F04BF49000CF1010CCCF192
:1016A0002003A0EB0C0022FA03F302FA0CF241EA49
:1016B000030100F10100704720F07F4C80EA030035
:1016C00023F07F47ACEB070303F57C5300F00040A9
:1016D00003F1FF032DE980494FEA154B09B44FEAA6
:1016E000144325EA0B4E24EA03480FF2042606EBC6
:1016F000132749083E785FEA320203FB0667C7F505
:10170000000707FB06F64FEA54374FEAD64606F1C4
:10171000020607FB066CCCF1005C4FEA1C472CEA82
:10172000074C07FB06F40CFB06F504EB15464FEAE5
:10173000961634BF00204FF000404FEAD13706FB29
:1017400007FC4FEA1C4C0CFB0BF7D21B03FB0CF7FE
:1017500061EB07010CFB0EF7B0EB074072EB174291
:101760000CFB08F734BFA2EB0742B2EB074261EB78
:1017700017414FEA0C444FEA910706FB07FC4FEA7A
:101780001C4C0CFB0BF7B0EBC74072EB573203FB62
:101790000CF734BFA2EBC742B2EBC74261EB573143
:1017A0000CFB0EF7B0EBC70072EB57720CFB08F79F
:1017B00034BFA2EBC702B2EBC70261EB5771039FC4
:1017C0004FEA816141EA921104EBCC044FEAD13730
:1017D0004FEA826206FB07FC42EA90124FEA806001
:1017E0004FEA1C4C0CFB0BF7D21B03FB0CF761EB15
:1017F00007010CFB0EF7B0EB074072EB17420CFB36
:1018000008F734BFA2EB0742B2EB074261EB174186
:101810004FEA8C554FEA910704EB9C2406FB07FC2A
:101820004FEA1C4C0CFB0BF7B0EBC74072EB573286
:1018300003FB0CF734BFA2EBC742B2EBC74261EB2C
:1018400057310CFB0EF7B0EBC70072EB57720CFB75
:1018500008F734BFA2EBC702B2EBC70261EB5771C6
:1018600015EB4C254FEA816141EA92114FEA826201
:101870004FEAD13742EA901206FB07FC44F100041C
:101880004FEA80604FEA1C4C0CFB0BF7D21B03FBAA
:101890000CF761EB07010CFB0EF7B0EB074072EBA6
:1018A00017420CFB08F734BFA2EB0742B2EB07422A
:1018B00061EB174115EB1C154FEA813141EA92416A
:1018C0004FEA823242EA90424FEA80304FEA0C7689
:1018D00044F1000448EA03434EEA0B484FF0000E7F
:1018E000B2EB080C71EB030724BF624639464EEB9E
:1018F0000E0E4FF0000B0018524149414BEB0B0B01
:10190000B2EB080C71EB03077BF1000B24BF6246BE
:1019100039464EEB0E0E4FF0000B00185241494174
:101920004BEB0B0BB2EB080C71EB03077BF1000BDD
:1019300024BF624639464EEB0E0E51EA020718BF2D
:1019400046F0010616EB0E7655F1000254F1000147
:1019500003D5BDE88901BDE80088BDE88901BDE87F
:101960000048B619524141EB0101A3F10103704750
:1019700080807F7E7D7C7B7A7978777676757473CC
:10198000727171706F6E6E6D6C6C6B6A6A6968688B
:10199000676666656464636362616160605F5F5E21
:1019A0005E5D5D5C5C5B5B5A5A5959585857575697
:1019B00056555555545453535252525151505050FC
:1019C0004F4F4F4E4E4D4D4D4C4C4C4B4B4B4A4A4E
:1019D0004A49494948484847474747464646454592
:1019E00045444444444343434342424242414141CB
:1019F000002B9C4630D477002BD01CB54FEA37071C
:101A000003B44FF010004FF01001BAF1000F06D0F0
:101A1000BCF1000FDCBF40F0080040F008014FF0BF
:101A200000000FBCBDE810400BF1010BBBF1010F32
:101A300008BF5FEA170722BF12F1010211F101018D
:101A40004FF0004143F1000300F0004043EA000082
:101A50007047F9D35708D0E746EA064613F1400F1E
:101A60004FEA16461FDD13F1200FDFBF16430A466B
:101A7000002120335B42BED0C3F1200746EA064670
:101A800002FA07F74FEA164646EA0706C3F12007AF
:101A900022FA03F201FA07F721FA03F14FF00003EB
:101AA00042EA0702A7E746EA020646EA06464FEA86
:101AB000164646EA0106BCBF46EA0646360C4FF01B
:101AC00000034FF000024FF0000194E72DE9804C35
:101AD0009A46934670B491E8380007C831EA400C42
:101AE00048BF34EA430C03D5FFF7E6FDFFF780FF5C
:101AF000F0BCBDE8008C2DE9804C9A46934670B44A
:101B000091E8380007C810F0804F08BF13F0804FED
:101B100003D100F005F8FFF76BFFF0BCBDE8008CC7
:101B200020F07F4780EA030023F07F4C07EB0C0393
:101B3000A3F57C5300F00040A3F1FE0392F0000FE8
:101B400000F0B38095F0000F00F077802DE9014997
:101B50004FEA11404FEA144621EA004800FB06FC18
:101B600024EA064708FB06F607FB08F800FB07F720
:101B700018EB06484CEB164C4FEA124B18EB074893
:101B80004FEA15464CEB174022EA0B4E0BFB06FCC6
:101B900025EA06470EFB06F607FB0EFE0BFB07F7D2
:101BA0001EEB064E4CEB164C4FF000061EEB074E9C
:101BB0004CEB174B18EB0B0840F1000018EB0E0B29
:101BC00058EB000840F100008F1A4FF000013CBFB5
:101BD000C943661B14BFB5EB040C00213CBFC943CD
:101BE000F61B4FEA17444EEA8E0E27EA04454FEAE9
:101BF0001C4704FB07622CEA074C05FB07F70CFBAC
:101C000005F604FB0CFC16EB074642EB174216EBFD
:101C10000C4642EB1C421BEB060658EB020241410C
:101C200046EA9E0601D5BDE80189B619524141EB4D
:101C30000101A3F10103BDE801894FEA14454FEA10
:101C4000114724EA054621EA074C05FB07F406FB89
:101C500007F70CFB06F105FB0CFC11EB074144EB0D
:101C600017444FEA124711EB0C4144EB1C4422EAA3
:101C7000074C05FB07F206FB07F70CFB06F605FB16
:101C80000CFC16EB074642EB174216EB0C4642EBF8
:101C90001C456A1854F1000148BF7047B6195241FB
:101CA00041EB0101A3F10103704795F0000F37D01C
:101CB0004FEA11424FEA144721EA024624EA074C50
:101CC00002FB07F106FB07F70CFB06F402FB0CFC1A
:101CD00014EB074441EB17414FEA154714EB0C4452
:101CE00041EB1C4125EA074C02FB07F506FB07F711
:101CF0000CFB06F602FB0CFC16EB074645EB174502
:101D000016EB0C4645EB1C42121951F1000148BF7D
:101D10007047B619524141EB0101A3F1010370472D
:101D20004FEA14454FEA114724EA054621EA074CD9
:101D300005FB07F106FB07F70CFB06F24FF0000668
:101D400005FB0CFC12EB074241EB174112EB0C4276
:101D500051EB1C4148BF7047921841EB0101A3F1C0
:101D6000010370470029816802D041F0010101E0C0
:101D700021F0010181607047084B10B5D3F80423AE
:101D800007490A40D0E900142143D0E90240044346
:101D900021431143C3F8041310BD0000002001408B
:101DA000E030FCFFC06C80B2704702460020126831
:101DB0000A4200D00120704730B542680F4B0C79C1
:101DC0001A400B6842EA04221343436082680C4BBA
:101DD0004D791A40D1E9034323438C6844EA450412
:101DE000234313438360C26A097D22F47002491EB3
:101DF000C9B242EA0151C16230BD0000FFFEFFFCE2
:101E0000FDF7FFC070B5072609290AD9C568A1F1F9
:101E10000A0404EB4404A640B543A3401D43C56037
:101E200007E0056901EB4104A640B543A3401D430B
:101E300005611F23072A09D2446B521E02EB82025E
:101E400093409C4391400C43446370BD0D2A09D2DA
:101E5000046BD21F02EB820293409C4391400C43DF
:101E6000046370BDC46A0D3A02EB820293409C4346
:101E700091400C43C46270BD816841F08041816033
:101E80007047000010B501200BF07AFF04490028CC
:101E9000486004D1BDE8104002A0FEF7ADBA10BD05
:101EA000380000205B4163717569736974696F6EF6
:101EB0005D204552524F523A204661696C6564205C
:101EC000746F20637265617465206D757465782127
:101ED0000D0A000070B50646401E032801D30020FD
:101EE00070BD1E4806EB460200EB820515F80C4C4F
:101EF00009B1012000E00020A04201D1012070BD05
:101F000009B1012000E0002005F80C0C012901D0E6
:101F100091B11AE0002C18D1314611A0FEF76CFAED
:101F2000304605F067FC4FF4FA600BF0E5F93146F6
:101F300017A0FEF761FA08E0012C06D1314622A075
:101F4000FEF75AFA304605F00BFC15F80C3C224619
:101F5000314629A0FEF750FAD0E70000A00000208B
:101F60005B4163717569736974696F6E5D20436865
:101F7000616E6E656C2025643A204F70656E696EE7
:101F8000672072656C61792E2E2E0D0A000000000C
:101F90005B4163717569736974696F6E5D20436835
:101FA000616E6E656C2025643A2052656C61792003
:101FB0006F70656E656420616E6420737461626920
:101FC0006C697A65640D0A005B41637175697369B8
:101FD00074696F6E5D204368616E6E656C20256468
:101FE0003A20436C6F73696E672072656C61792E5D
:101FF0002E2E0D0A000000005B4163717569736944
:1020000074696F6E5D204368616E6E656C20256437
:10201000207374617465206368616E6765643A203B
:102020002564202D3E2025640D0A000010B5411EB8
:102030004FF46163994206D30146012206A0FEF7E0
:10204000DBF9002010BD12490880014611A0FEF7FF
:10205000D3F9012010BD00005B416371756973699C
:1020600074696F6E5D20496E76616C69642066727A
:10207000657175656E63793A202564202876616CF8
:1020800069643A2025647E2564290D0A0000000059
:10209000380000205B4163717569736974696F6E04
:1020A0005D204672657175656E6379207365742075
:1020B000746F202564207365636F6E64730D0A006E
:1020C0009CB0FFF7DFFE72A0FEF796F94FF0FF30ED
:1020D00000907C4801230022194600680BF016FD91
:1020E00079A0FEF789F90CF0EFF90025DFF80C82F2
:1020F0002C461B9004EB440018F8201001290DD148
:1021000008EB8006B07848B1601CC0B205F072FBE5
:102110000125B278611C7AA0FEF76EF9641C032CCD
:10212000E8DB1DB14FF4FA600BF0E6F87C4E4FF09F
:102130000109542101A8FEF7B5FC3088ADF8540020
:1021400006F0ECFBADF8560000204C4600EB4001D9
:1021500018F82120012A1ED108EB8101897808296D
:1021600019D2DFE801F01804070A0D1013168DF8D4
:102170004C4010E08DF84D400DE08DF84E400AE0E7
:102180008DF84F4007E08DF8504004E08DF8514045
:1021900001E08DF85240401C0328D7DBD8F84410EA
:1021A000454616A88847012825D19DF8680010B338
:1021B0009DED160A8DED030A9DED170A8DED040ABB
:1021C0009DF863008DF807009DF862008DF8060009
:1021D000BDF86000ADF804009DF864008DF80800BB
:1021E0009DF865008DF809009DF866008DF80A00DD
:1021F0008DF8144002E000208DF814009FED490A8C
:1022000016A98DED000A8DED160A2A6E68469047D4
:1022100038B19DED160A8DED070A9DED000A8DED92
:10222000060AE86C80478DF8200001AF002404EB1B
:10223000440015F82010012908D105EB80008168C1
:1022400021B13846884764200BF056F8641C032CF3
:10225000EDDB00236422194670680BF0E5FD0128D0
:102260000AD1542201A93048FEF7C0FB00231A46C8
:10227000194670680BF0FAFE30882C4948434FF439
:102280007A71B0FBF1F11BA80BF072F851E7000076
:102290005B4163715D2057616974696E6720666F89
:1022A0007220686172647761726520696E6974205A
:1022B000746F20636F6D706C6574652E2E2E0D0A21
:1022C00000000000340000205B4163715D20486124
:1022D00072647761726520696E697420646F6E65DF
:1022E0002C207374617274696E6720616371756903
:1022F000736974696F6E2E0D0A000000A000002043
:102300005B4163715D204368616E6E656C2025647E
:10231000204F4E2028747970653D2564290D0A00F0
:1023200038000020000000006C02002040420F0036
:10233000FEE700008021014801F0EFBC00040240EC
:102340008021014801F0EBBC0004024010B50246B8
:102350004FF6FF70064C07E012F8013B4340DBB23A
:1023600034F8133083EA1020491E89B2F4D210BD2C
:102370006CF1080870B500254FF4803405E080202A
:1023800003F0B6FF08B144B101E0641EF7D240F299
:10239000FF5003F085FF284670BD032070BD00008C
:1023A00010B504461348016811F0450FFBD0042016
:1023B00003F09EFF20B1042003F072FF032010BD44
:1023C000012003F095FF20B1012003F069FF0120F7
:1023D00010BD084824380068A04201D0102010BD6C
:1023E00040F2FF5003F05CFF02482038006800F024
:1023F000080010BD342C014010B500244FF480318A
:102400000E4809E0026812F0450F05D009B15007E7
:1024100005D5032404200CE0491EF3D2F7E7012080
:1024200003F066FF18B10124204603F039FF40F2A3
:10243000FF5003F035FF204610BD0000342C014052
:1024400010B50A49086810F0450FFBD0042003F0CE
:102450004FFF20B1042003F023FF032010BD40F202
:10246000FF5003F01DFF002010BD0000342C014080
:1024700070B506461C480D460024026812F0450F50
:10248000FBD0042003F034FF20B1042003F008FF48
:10249000032070BD012003F02BFF20B1012003F0C9
:1024A000FFFE012070BD104824380068B04212D1F0
:1024B00040F2FF5003F0F4FE0B482038026812F49B
:1024C000604F03D0900404D5132070BD100C2880F9
:1024D00007E0500401D5102070BD100401D50F2075
:1024E00070BD204670BD0000342C014010B50024A2
:1024F0004FF480320B4809E0016811F0450F05D018
:102500000AB1480705D50324042006E0521EF3D281
:10251000F7E7480603D50024402003F0C1FE20461B
:1025200010BD0000342C014010B594B012A1FEF78C
:102530006DF9F0B13A21FEF75FF9D0B1401CFEF71A
:1025400015F90404240C14D02046FFF76FFD80B168
:1025500000F0C4FF22460CA16846FDF759FF68460B
:1025600000F084FC14A11748FEF762F9012014B0B2
:1025700010BD0020FBE70000416371467265717574
:10258000656E6379000000007B22436C69656E74A0
:102590005F436F6D6D616E64223A224163714672D2
:1025A000657175656E63795F4368616E67655F4FDE
:1025B0004B28256429227D004143515F46524551F5
:1025C0005F4F4B004C00002010B5044641A1FEF7C0
:1025D0001DF940B101210846FFF77CFC41A000F045
:1025E00045FC4AA171E04DA12046FEF70FF940B12C
:1025F00000210120FFF76EFC4DA000F037FC56A132
:1026000063E059A12046FEF701F940B10121022003
:10261000FFF760FC58A000F029FC61A155E064A11F
:102620002046FEF7F3F840B100210220FFF752FCEC
:1026300064A000F01BFC6DA147E070A12046FEF7EE
:10264000E5F840B101210320FFF744FC70A000F041
:102650000DFC79A139E07CA12046FEF7D7F840B106
:1026600000210320FFF736FC7CA000F0FFFB85A1D2
:102670002BE088A12046FEF7C9F880B10121084669
:10268000FFF728FC01210220FFF724FC0121032091
:10269000FFF720FC84A000F0E9FB8DA115E090A1DC
:1026A0002046FEF7B3F8002813D000210120FFF7E1
:1026B00011FC00210220FFF70DFC00210320FFF791
:1026C00009FC8CA000F0D2FB94A19948FEF7B0F869
:1026D000012010BD4F4E454348414E4E454C5F4F83
:1026E00050454E007B22436C69656E745F436F6D8D
:1026F0006D616E64223A224F4E454348414E4E452D
:102700004C5F4F50454E227D000000004F50454E1B
:102710005F4F4E45435F4F4B000000004F4E454317
:1027200048414E4E454C5F434C4F5345000000001E
:102730007B22436C69656E745F436F6D6D616E647F
:10274000223A224F4E454348414E4E454C5F434C42
:102750004F5345227D000000434C4F53455F4F4E81
:1027600045435F4F4B00000054574F4348414E4E86
:10277000454C5F4F50454E007B22436C69656E743B
:102780005F436F6D6D616E64223A2254574F434828
:10279000414E4E454C5F4F50454E227D000000009B
:1027A0004F50454E5F54574F435F4F4B0000000062
:1027B00054574F4348414E4E454C5F434C4F534551
:1027C000000000007B22436C69656E745F436F6D8F
:1027D0006D616E64223A2254574F4348414E4E4534
:1027E0004C5F434C4F5345227D000000434C4F53F8
:1027F000455F54574F435F4F4B00000054485245CC
:10280000454348414E4E454C5F4F50454E000000F9
:102810007B22436C69656E745F436F6D6D616E649E
:10282000223A2254485245454348414E4E454C5F5A
:102830004F50454E227D00004F50454E5F54485248
:102840004545435F4F4B000054485245454348417E
:102850004E4E454C5F434C4F534500007B22436C2A
:1028600069656E745F436F6D6D616E64223A2254C8
:10287000485245454348414E4E454C5F434C4F53AB
:1028800045227D00434C4F53455F544852454543D4
:102890005F4F4B00414C4C5F4348414E4E454C5FAF
:1028A0004F50454E000000007B22436C69656E74FA
:1028B0005F436F6D6D616E64223A22414C4C5F4301
:1028C00048414E4E454C5F4F50454E227D00000022
:1028D0004F50454E5F4348414E4E454C5F4F4B0075
:1028E000414C4C5F4348414E4E454C5F434C4F5327
:1028F000450000007B22436C69656E745F436F6D19
:102900006D616E64223A22414C4C5F4348414E4E09
:10291000454C5F434C4F5345227D0000434C4F5381
:10292000455F4348414E4E454C5F4F4B0000000011
:102930004C00002010B594B013A1FDF767FF00B361
:102940003A21FDF759FFE0B1401CFDF70FFF0404E9
:10295000240C16D02046FFF769FB204606F008F845
:1029600000F0BCFD22460BA16846FDF751FD68460C
:1029700000F07CFA13A11748FDF75AFF012014B0AC
:1029800010BD0020FBE700004672657175656E633F
:10299000790000007B22436C69656E745F436F6D44
:1029A0006D616E64223A224672657175656E637957
:1029B0005F4368616E67655F4F4B28256429227D00
:1029C00000000000465245515F4348414E47455F75
:1029D0004F4B00004C00002070B5054626A1FDF7C6
:1029E00015FF274C58B127A000F040FA4FF4FA70B9
:1029F0000AF082FC606E00B18047012070BD29A101
:102A00002846FDF703FF40B1A16E09B101208847B8
:102A100027A000F02BFA2FA129E032A12846FDF7CC
:102A2000F5FE40B1A16E09B10020884731A000F049
:102A30001DFA39A11BE03CA12846FDF7E7FE40B195
:102A4000216F09B1012088473BA000F00FFA43A194
:102A50000DE046A12846FDF7D9FE0028CED0216F13
:102A600009B10020884745A000F000FA4CA1514868
:102A7000FDF7DEFEC1E700005245535441525400B9
:102A8000A00000207B22436C69656E745F436F6D0C
:102A90006D616E64223A22524553544152545F4F45
:102AA0004B227D0042555A5A45525F4F50454E00C9
:102AB0007B22436C69656E745F436F6D6D616E64FC
:102AC000223A2242555A5A45525F4F50454E227D76
:102AD000000000004F50454E5F42555A5A45525F24
:102AE0004F4B000042555A5A45525F434C4F534595
:102AF000000000007B22436C69656E745F436F6D5C
:102B00006D616E64223A2242555A5A45525F434CD7
:102B10004F5345227D000000434C4F53455F4255C3
:102B20005A5A45525F4F4B003447504F5745525FFA
:102B30004F50454E000000007B22436C69656E7467
:102B40005F436F6D6D616E64223A223447504F5778
:102B500045525F4F50454E227D0000004F50454E7C
:102B60005F3447504F5745525F4F4B003447504FEB
:102B70005745525F434C4F53450000007B22436C46
:102B800069656E745F436F6D6D616E64223A2234C5
:102B900047504F5745525F434C4F5345227D0000ED
:102BA000434C4F53455F3447504F5745525F4F4B4F
:102BB000000000004C00002010B594B012A1FDF7F9
:102BC00025FEF0B13A21FDF717FED0B1401CFDF70C
:102BD000CDFD0404240C14D0204605F0C9FE80B1BC
:102BE00000F07CFC22460CA16846FDF711FC68460B
:102BF00000F03CF915A11948FDF71AFE012014B0A8
:102C000010BD0020FBE7000055706C6F61644672D8
:102C1000657175656E6379007B22436C69656E74BE
:102C20005F436F6D6D616E64223A2255706C6F6107
:102C3000644672657175656E63795F4368616E673E
:102C4000655F4F4B28256429227D000055504C4F6D
:102C500041445F465245515F4F4B00004C000020FD
:102C600070B50D46040005D025B140A1FDF7CEFD9D
:102C700090B901E0002070BD40A12046FDF7C6FDDF
:102C800050B9072240A12046FDF720FE20B140A107
:102C90002046FDF7BBFD20B12946204602F02EF963
:102CA0003CE03FA12046FDF7B1FD20B12046BDE844
:102CB0007040FFF739BC3EA12046FDF7A7FD20B1CB
:102CC0002046BDE87040FFF777BF3DA12046FDF7E5
:102CD0009DFD20B12046BDE87040FFF72BBE3BA113
:102CE0002046FDF793FD20B93BA12046FDF78EFD60
:102CF000B0B13CA12046FDF789FD18B105F032FEC8
:102D00003BA108E03DA12046FDF780FD0028B2D0A0
:102D100005F028FE3CA13F48FDF78AFD012070BD6B
:102D20003DA12046FDF772FD20B12046BDE8704070
:102D3000FFF74ABC3AA12046FDF768FD48B93AA121
:102D40002046FDF763FD20B939A12046FDF75EFD61
:102D500020B12046BDE87040FFF73EBE36A000F02F
:102D600085F83EA12B48FDF763FD83E7636F6E6630
:102D700069672C7570636865636B0000636F6E66CE
:102D800069672C7570696E00555046494C453A008C
:102D9000636F6E6669672C75707374610000000064
:102DA0004163714672657175656E6379000000005C
:102DB00055706C6F61644672657175656E637900FC
:102DC0004672657175656E63790000004745545F12
:102DD0004D4D5347000000004745545F444D534755
:102DE000000000004745545F4D4D53470000000070
:102DF0004745545F4D4D53475F4F4B004745545F28
:102E0000444D5347000000004745545F444D53472D
:102E10005F4F4B004C0000204348414E4E454C0054
:102E2000524553544152540042555A5A455200009B
:102E30003447504F574552007B22436C69656E748E
:102E40005F436F6D6D616E64223A224552524F525C
:102E50005F434F4D4D414E44227D00004552524F3D
:102E6000525F434F4D4D414E4400000010B50028C5
:102E700009D0054CA16D002905D08847A16DBDE89A
:102E8000104002A0084710BDA00000200D0A00005D
:102E90001CB51DA0FDF7B0FA08212BA0FDF7ACFA78
:102EA000364F374EDFF8DC9040F6B83A40F2FF7507
:102EB0004FF0000800235246694638680AF0B4FF14
:102EC000012805D030A0FDF797FA05F09DF8F1E74D
:102ED00031683AA0491C3160FDF78EFABDF8044014
:102EE000AC4200D32C46224626480099FDF739FD16
:102EF00009F80480234A21463FA0FDF77DFA2146C8
:102F00002048FFF7ADFED5E75B436F6D6D616E64E2
:102F10005D205461736B20737461727465642C203E
:102F200077616974696E6720666F7220636F6D6D7B
:102F3000616E64732066726F6D2071756575652EA4
:102F40002E2E5C725C6E00005B436F6D6D616E6473
:102F50005D2051756575652073697A653A20352C59
:102F6000204974656D2073697A653A202564206272
:102F7000797465735C725C6E0000000030000020A4
:102F800048000020C00200205B436F6D6D616E64DD
:102F90005D2051756575652074696D656F75742C5C
:102FA00020636865636B696E6720444D41207374CC
:102FB000617475732E2E2E0D0A0000005B436F6D39
:102FC0006D616E645D203D3D3D3D3D2051756575F3
:102FD00065206D65737361676520726563656976E9
:102FE00065642120436F756E743A20256C75203D11
:102FF0003D3D3D3D0D0A00005B436F6D6D616E64AC
:103000005D20526563656976656420256420627978
:103010007465733A20252E3530732E2E2E0D0A003E
:103020000029016802D041F0010101E021F0010115
:10303000016070472DE9F043016821F00101016052
:103040000021016041608160C16001612121416115
:103050003C493C4A3D251039904202D18D60BDE883
:10306000F083384A4FF474661832904201D18E6072
:10307000F5E7344A4FF474173032904201D18F6033
:10308000EDE7304A4FF0746C4832904202D1C1F8FB
:1030900008C0E4E72B4B2C4A6033984201D1CA6048
:1030A000DDE7284C294B7834A04201D1CB60D6E72C
:1030B000DFF89080264C08F19008404501D1CC60A3
:1030C000CDE7DFF880804FF03D5908F1A808404572
:1030D00002D1C1F80C90C2E71E49DFF878800839A8
:1030E000404501D10D60BAE71A4D1835A84201D10B
:1030F0000E60B4E7174D3035A84201D10F60AEE73E
:10310000144D4835A84202D1C1F800C0A7E7114DBF
:1031100010496035091FA84201D10A609FE70D4A96
:103120007832904201D10B6099E70A4A903290427E
:1031300001D10C6093E7074AA83290428FD1C1F8C1
:1031400000908CE7106002403D000020400F0020FE
:1031500000003D20106402400029016802D041F0C7
:10316000200101E021F020010160704701460020AC
:103170000968C90700D001207047406880B27047D5
:1031800030B50368124ACC6813400A682243D1E97B
:1031900005452C432243CC6922430C6A22434C6AE6
:1031A00022438C6A22434C6B22438C6B22431A438A
:1031B0000260426922F00703D1E90B2422431A433B
:1031C00042610A6942604A6882608968C16030BDB4
:1031D0003F801CF0416070477047000070B50646A4
:1031E000002529B1012927D0022928D04FF44075A4
:1031F00000F080F809281ED1124C206820F440709D
:103200002060206828432060206820F0F8002060BB
:10321000206846F0020108432060206840F48030B6
:10322000206000F067F8216821F002012160216828
:1032300021F0F801216070BD4FF48075D8E74FF49C
:103240000075D5E7103C02400D4909200A68D203F9
:1032500001D5012070470A68D20601D506207047C3
:103260000A68D20501D5022070470A6812F0EF0FF4
:1032700001D00720704709688907FBD508207047EF
:103280000C3C02400248016841F000410160704777
:10329000103C024070B50D46064600F02BF8092898
:1032A00013D10A4C206820F440702060206840F45C
:1032B00080702060206840F001002060358000F0C0
:1032C00019F8216821F00101216070BD103C024015
:1032D00005480068002805DA034804490C380160F5
:1032E0000349016070470000103C0240230167451C
:1032F000AB89EFCD08B509208DF80000FFF7A4FFDA
:103300008DF800009DF800000128F7D09DF800001E
:1033100008BD00002DE9FC5F00244C4F00944FF4E1
:10332000806801944025C7F81080C7E902540E4612
:103330004FF0080B1021C7E900B1A146384603F051
:103340001DF81020FFF72CF8002853D14048AA465A
:103350004D460089000438603720C7E9010AC7E9F3
:103360000398384603F00AF83720FFF719F80028C9
:1033700040D1411E07F11400C0E9001B30218160DB
:103380000221C0E903150121416102F099FF3320B8
:10339000C7F808A0C7E90050C7E90358384602F04B
:1033A000EDFF3320FEF7FCFF050023D1DFF8A490EA
:1033B000DFF8A0804FF4001B6F46A9F14C0940F2E2
:1033C0002A6AD9F8000010EA0A0F0BD1584602F019
:1033D0008FFF0028F5D0D8F8000047F82400641CBF
:1033E000022CEED3082002F083FF28B1082002F05F
:1033F00057FF0420BDE8FC9F022002F079FF20B1B6
:10340000022002F04DFF0220F4E7202002F070FFBE
:1034100020B1202002F044FF0620EBE74FF40074B7
:10342000204602F065FF20B1204602F039FF072058
:10343000E0E740F2FF5002F033FF009800BA7060FE
:10344000019800BA30602846D4E7000040340020DC
:10345000C4010020802C014010B5044C20680028D5
:1034600003D101200AF08CFC206010BDB8010020BF
:1034700070B5012405220F490F4800F023F80D4DC7
:103480004FF6FF70E988814202D02989814200D13C
:10349000002409F0DBFD094909481CB1EA880A80CB
:1034A000298902E005220A800A210180BDE87040D6
:1034B00009F00CBE9422002000000E083800002005
:1034C0004200002010B5002305E030F8134021F839
:1034D00013405B1C9BB29342F7D310BD10B5124C46
:1034E000206800281ED000235A1E19460AF09CFCB2
:1034F000012817D109F0AAFD0C4801880C48C180A9
:103500000C490988018109F0E1FD052208490A48B2
:1035100000F014F800232068BDE810401A46194650
:103520000AF0A4BD10BD0000B80100203800002042
:10353000042100204200002000000E082DE9F04187
:1035400016460F460546B0F1006F1ED305EB460048
:10355000B0F1016F19D2FFF7BBFE02215820FFF72F
:103560003DFE09280DD1002409E037F8141005EBC1
:103570004400FFF78FFE092803D1641CA4B2B442B3
:10358000F3D3BDE8F041FFF77DBEBDE8F081000058
:1035900010B50E4C6088002816D000235A1E19461C
:1035A00020690AF041FC62880949E06805F09CFC4A
:1035B00000231A46194620690AF058FD6188E06820
:1035C0000844E0600020608010BD00005C01002025
:1035D000CC0D00202DE9F04F054693B00020287057
:1035E00014460E46D0680BF02DFDCDE90001A06811
:1035F0000BF028FD07468846A0690BF023FD8146A5
:103600008A4660690BF01EFD0B460246DDE90001AB
:10361000CDE91001207C002801D06EA000E06EA052
:103620000C97CDE90D8001D06AA000E06AA0CDE939
:1036300009A006A902AF81E80C022079237FA279B4
:10364000617987E80F00E178A078CDE9000123884F
:103650003146284662A2FCF7F1FE1FFA80F994F881
:103660004800D0B1E06A0BF0EDFC07468846A06A3E
:103670000BF0E8FC82468B46606A0BF0E3FC0B46DD
:1036800002468DE80C0CCDE90478A6EB090105EBA8
:10369000090062A2FCF7D2FE06E0A6EB090105EBE9
:1036A000090062A2FCF7CAFE484487B294F84900B8
:1036B00050B1206B0BF0C6FCCDE90001F11BE819FD
:1036C0005EA2FCF7BBFE04E0F11BE81959A2FCF76F
:1036D000B5FE384487B294F84A0050B1606B0BF0E5
:1036E000B1FCCDE90001F11BE81954A2FCF7A6FEDC
:1036F00004E0F11BE8194FA2FCF7A0FE38441FFAC2
:1037000080F994F84E00D0B1206C0BF09BFC07467A
:103710008846A06B0BF096FC82468B46E06B0BF064
:1037200091FC0B4602468DE80C0CCDE90478A6EB23
:10373000090105EB090039A2FCF780FE06E0A6EBC3
:10374000090105EB090039A2FCF778FE484487B26D
:1037500094F84B0050B1A06B0BF074FCCDE9000164
:10376000F11BE81935A2FCF769FE04E0F11BE8192A
:1037700030A2FCF763FE384487B294F84C0050B195
:10378000E06B0BF05FFCCDE90001F11BE8192BA207
:10379000FCF754FE04E0F11BE81926A2FCF74EFEEC
:1037A000384487B294F84D0060B1206C0BF04AFCAD
:1037B000CDE90001F11BE81922A2FCF73FFE13B08E
:1037C000BDE8F08FF11B13B0E819BDE8F04F1FA260
:1037D000FCF734BE00000000494E565F00000000B8
:1037E000253034642F253032642F253032642C2567
:1037F0003032643A253032643A253032642C256404
:1038000025252C252E31662C252E31662C25732559
:103810002E36662C2573252E36662C00252E346612
:103820002C252E34662C252E34662C003939392C63
:103830003939392C3939392C00000000252E3466ED
:103840002C000000252E34660D0A00003939390D90
:103850000A0000002DE9F04F044687B000202070D8
:1038600015460F462046FDF712F83E1A2046FDF792
:103870000EF8E9780DF1040895F806C06B792A79FD
:1038800088E80E10A978009120442B888E4A314692
:10389000FCF7D4FDA8690BF0D5FB82468B4668691E
:1038A0000BF0D0FB804689462046FCF7F0FF381A23
:1038B00004902046FCF7EBFF8DE8000F20442B7F9F
:1038C00082A20499FCF7BAFD287CC0B1E8680BF02D
:1038D000B9FB82468B46A8680BF0B4FB804689464C
:1038E0002046FCF7D4FF3E1A2046FCF7D0FF8DE8B7
:1038F000000F204483A23146FCF7A0FD0BE02046D8
:10390000FCF7C5FF3E1A2046FCF7C1FF204486A203
:103910003146FCF793FD2046FCF7B9FF3E1A2046DE
:10392000FCF7B5FF204487A23146FCF787FD95F8E8
:10393000480018B3E86A0BF085FB80468946A86A00
:103940000BF080FBCDE90001686A0BF07BFB82463F
:103950008B462046FCF79BFF3E1A2046FCF797FF5C
:103960000319CDE90489DDE90001CDE902017DA259
:1039700031461846CDE900ABFCF760FD95F84900EB
:1039800090B1286B0BF05EFB804689462046FCF721
:103990007EFF3E1A2046FCF77AFF20447CA2314687
:1039A000CDE90089FCF74AFD95F84A0090B1686BB3
:1039B0000BF048FB804689462046FCF768FF3E1A1C
:1039C0002046FCF764FF204475A23146CDE900890A
:1039D000FCF734FD95F84E0018B3286C0BF032FB61
:1039E00080468946A86B0BF02DFBCDE90001E86B02
:1039F0000BF028FB82468B462046FCF748FF3E1A18
:103A00002046FCF744FF0319CDE90489DDE90001F4
:103A1000CDE9020168A231461846CDE900ABFCF7BA
:103A20000DFD95F84B0090B1A86B0BF00BFB804699
:103A300089462046FCF72BFF3E1A2046FCF727FF5D
:103A400020446BA23146CDE90089FCF7F7FC95F8DC
:103A50004C0090B1E86B0BF0F5FA804689462046A1
:103A6000FCF715FF3E1A2046FCF711FF204465A223
:103A70003146CDE90089FCF7E1FC95F84D0098B19D
:103A8000286C0BF0DFFA05460E462046FCF7FFFED9
:103A9000A7EB00082046FCF7FAFECDE900562044CB
:103AA0005EA24146FCF7CAFC2046FCF7F0FE3D1A38
:103AB0002046FCF7ECFE07B020442946BDE8F04F55
:103AC0005CA2FCF7BBBC0000F4350908E78EAFE54B
:103AD000A283203E3E20E794B5E6B1A03A256425B6
:103AE00025207C20E6B8A9E5BAA63A252E31664302
:103AF000207C20E6B9BFE5BAA63A252E31662525F9
:103B00000D0A000047505320203E3E20E7BAACE5A6
:103B1000BAA63A252E3666207C20E7BB8FE5BAA6EA
:103B20003A252E36660D0A0047505320203E3E208F
:103B3000E697A0E5AE9AE4BD8DE4BFA1E58FB75C42
:103B4000720A0000E6B0B4E8B4A8E4BCA0E6849F22
:103B5000E599A8E8AFBBE58F96E8AFA6E683853A7E
:103B60000D0A0000202D20434F443A20252E3366B5
:103B7000207C20544F433A20252E3366207C20E6BB
:103B8000B58AE5BAA63A20252E33660D0A00000054
:103B9000202D2043444F4D3A20252E33660D0A0038
:103BA000202D20E58FB6E7BBBFE7B4A03A20252E35
:103BB00033660D0A00000000202D205934303030CB
:103BC000E99B86E688903A20E6BAB6E6B0A72025BB
:103BD0002E3366207C20504820252E3366207C2002
:103BE000E79B90E5BAA620252E33660D0A0000005B
:103BF000202D20E78BACE7AB8B50483A20252E33A5
:103C0000660D0A00202D20E78BACE7AB8BE6BAB639
:103C1000E6B0A73A20252E33660D0A00202D20E7B6
:103C20008BACE7AB8BE79B90E5BAA63A20252E3309
:103C3000660D0A003D3D3D3D3D3D3D3D3D3D3D3D2B
:103C40003D3D3D3D3D3D3D3D3D3D3D3D3D3D3D3DA4
:103C50003D3D3D3D3D3D3D3D3D3D3D3D3D3D3D3D94
:103C60003D3D3D3D3D3D3D3D3D3D3D3D3D0D0A0D17
:103C70000A000000F0B5002201274FF0030C0B688A
:103C800007FA02F52B40AB422CD1066853000CFA20
:103C900003F4A64306600E79D0F800E09E4046EAA1
:103CA0000E0606600E79012E01D0022E12D1866812
:103CB000A64386604E79D0F808E09E4046EA0E069C
:103CC00086604668AE43466045688E799640B6B2D7
:103CD00035434560C568A543C560CC799C40C36841
:103CE0001C43C460521C102AC9D3F0BD4B07DB0E25
:103CF0009A40C90810B500EB8100016A0F249C406E
:103D0000A1430162016A1143016210BD0246002015
:103D100012690A4200D00120704741837047018335
:103D20007047000070B5114D064600242978A86838
:103D30004942084201D1002070BD00236422194687
:103D40000AF072F801280ED10948007C28B114222B
:103D500007493046FCF74AFE012400231A4619465B
:103D6000A8680AF083F9204670BD0000800000209A
:103D7000C00A002008B500200090094840680028CB
:103D80000DD069460AF0B2FA0098002807D005491C
:103D90004FF080500860BFF34F8FBFF36F8F08BDA7
:103DA0008000002004ED00E003460DE002782A2A9E
:103DB00003D0202A01D37A2A01D9FF2070472C2A68
:103DC00001D1491EC9B2401C0029EFD1C01AC0B2AE
:103DD0007047000070B5094D06460C46287800284B
:103DE0000AD0621E06493046FCF783FE00213019D6
:103DF00000F8011C2970012070BD00004401002062
:103E0000D40C0020F0B52D4D87B001216860022050
:103E100002F06CF90121880402F074F9284E07229F
:103E20000A213046FFF762FF07220B213046FFF7D9
:103E30005DFF02218DF8041000248DF80640301536
:103E40008DF80510009001278DF8077069463046FF
:103E5000FFF710FFF014009069463046FFF70AFFA5
:103E60004FF416400290ADF810400C20154EADF8FE
:103E70000C40ADF81200ADF80E40ADF8144002A9A8
:103E8000304604F003FA012240F22551304604F096
:103E9000E5F90121304604F0A9F927208DF8180032
:103EA00006208DF819008DF81A408DF81B7006A8B1
:103EB00000F01EFE6C802C7007B0F0BD44010020A5
:103EC00000040240004800402DE9F04100272DED9C
:103ED000048B84B00D46064601977FA10297FCF73C
:103EE00095FC040005D17EA13046FCF78FFC040050
:103EF00031D00121FFF758FFFF282CD0204469461C
:103F000000F0FCF806469DF800100A2000F0EEF8DC
:103F1000B6FBF0F042F21078B0FBF8F18DF8081023
:103F20006426B0FBF6F1B1FBF6F206FB12118DF838
:103F30000910B0FBF6F106FB11008DF80A00022112
:103F40002046FFF731FFFF280DD0205C412808D024
:103F50000020287408E0002004B0BDEC048BBDE80C
:103F6000F0810120F5E72F7403212046FFF71CFFA5
:103F70009FED5D9AFF2832D02044694600F0BEF8DC
:103F800007469DF80000801CC1B20A2000F0AEF880
:103F9000B7FBF0F000EE100A9DF80000801CC1B2E3
:103FA000B8EE408A0A2000F0A1F80146B7FBF1F212
:103FB00000FB127000EE100A9DF800100A20F8EEC7
:103FC000408A00F093F800EE100AF8EE400A88EEFE
:103FD000A00AC0EE090A30EE880A85ED000A042125
:103FE0002046FFF7E1FEFF2808D0205C532805D1CA
:103FF00095ED000AB1EE400A85ED000A0521204644
:10400000FFF7D2FEFF2832D02044694600F076F850
:1040100007469DF80000801CC1B20A2000F066F837
:10402000B7FBF0F000EE100A9DF80000801CC1B252
:10403000B8EE408A0A2000F059F80146B7FBF1F2C9
:1040400000FB127000EE100A9DF800100A20F8EE36
:10405000408A00F04BF800EE100AF8EE400A88EEB5
:10406000A00AC0EE090A30EE880A85ED010A062191
:104070002046FFF799FEFF2808D0205C572805D17D
:1040800095ED010AB1EE400A85ED010A09212046AD
:10409000FFF78AFEFF2817D02044694600F02EF86B
:1040A000B0FBF8F18DF80710B0FBF6F1B1FBF6F2BA
:1040B00006FB12118DF80610B0FBF6F106FB11009D
:1040C00000F5FA60ADF8040005F1080101A800F060
:1040D000BFF8012040E7000024474E524D43000046
:1040E000244750524D430000000070420346012017
:1040F00000E05843491EC9B2FBD270472DE9F05F7A
:104100004FF0000A8B468046D146564654465546E7
:1041100001782D2902D145F00205401C01782C2997
:1041200008D02A2906D02E290AD030390A290AD3E4
:1041300000263446A80701D508F10108002718E039
:1041400045F00105401CE90702D0641CE4B201E01F
:10415000761CF6B2401CDBE7F01B401EC1B20A2001
:10416000FFF7C4FF18F80710303900FB01AA7F1CC5
:10417000FFB2B742F0D3052C00D905248BF80040DC
:1041800000270EE0E01B401EC1B20A20FFF7AEFF81
:10419000F21902EB08014978303900FB01997F1CC4
:1041A000FFB2A742EED321460A20FFF79FFF0AFB8A
:1041B0000090A90700D54042BDE8F09F174D184C6C
:1041C0009EB04FF0FF36002332461946606809F072
:1041D0002BFE0128F7D1EA6B64216846904700283E
:1041E000F1D02A6C19A9684690470028EBD000232B
:1041F00032461946A06809F017FE0128E3D11422BF
:1042000019A90848FCF7F2FB0120002320701A4688
:104210001946A06809F02AFFD5E70000A000002099
:1042200080000020C00A002010B5032200210120D8
:1042300009F0B8FD054C606030B1012009F0A0FD27
:10424000A060002801D1FEE7FEE710BD800000203D
:10425000FFB51CA6057996E8C05003888278C4781B
:104260008DE8C0500835EDB29E0705D16426B3FB3A
:10427000F6F706FB173636B94FF4C876B3FBF6F7F8
:1042800006FB173616B91D268DF80260182D0FD3C0
:10429000183D641C1DF80260E4B2EDB2A64207D2DC
:1042A000521C0124D2B20C2A02D901225B1C9BB2FF
:1042B0000B808A70CC700D7142794A718079887157
:1042C000FFBD0000001F1C1F1E1F1E1F1F1E1F1EE4
:1042D0001F000000FEE7000070B509F039FB25A0C3
:1042E000FCF78AF803F04EFA07F040FA08B12FA065
:1042F00000E033A0FCF780F8384D686F00B18047CC
:10430000E86F00B1804736A0FCF776F8A86C18B1CA
:10431000804738A0FCF770F8A96B21B13B4888476B
:104320003BA0FCF769F80324E86D804701281FD003
:10433000641E14F0FF04F7D13AA0FCF75DF80AF010
:104340004FFAE86E00B1804741A0FCF755F8D5F868
:10435000840000B180474BA0FCF74EF8574801217C
:10436000006809F075FBBDE87040002009F05CB8FA
:1043700053A0E2E70D0A3D3D3D3D3D3D3D3D3D3D08
:1043800020486172647761726520496E6974696161
:104390006C697A6174696F6E205374617274203D28
:1043A0003D3D3D3D3D3D3D3D3D0D0A005B4857498E
:1043B0006E69745D205253343835204F4B0D0A001E
:1043C0005B4857496E69745D205253343835204636
:1043D00041494C4544210D0A00000000A000002086
:1043E0005B4857496E69745D204F4C4544204F4BE4
:1043F0000D0A00005B4857496E69745D2042617484
:1044000074657279204F4B0D0A000000753D080855
:104410005B4857496E69745D20475053204F4B0DE0
:104420000A0000005B4857496E69745D204148549A
:104430003230204641494C45442061667465722003
:10444000332072657472696573210D0A00000000E3
:104450005B4857496E69745D2043656E7472616C88
:104460002053656E736F72205363616E6E696E6761
:1044700020262042696E64696E6720446F6E650D68
:104480000A0000003D3D3D3D3D3D3D3D3D3D204858
:104490006172647761726520496E697469616C69E3
:1044A0007A6174696F6E20446F6E65203D3D3D3DBD
:1044B0003D3D3D3D3D3D0D0A0D0A0000340000200C
:1044C0005B4857496E69745D204148543230204F33
:1044D0004B0D0A0030B53C4D04460023A1B06422C8
:1044E0001946286809F0A0FC012860D000208DF84A
:1044F0002800ADF85C009DF80F009DF811209DF894
:1045000010108DE807009DF80E30BDF80C202FA18B
:1045100018A8FBF77DFF34A12046FBF779FF204662
:10452000FCF7B5F9204439A1FBF772FF2046FCF7F0
:10453000AEF920443DA1FBF76BFF2046FCF7A7F93D
:10454000204440A1FBF764FF2046FCF7A0F920447B
:1045500018AA42A1FBF75CFF2046FCF798F920441B
:1045600042A1FBF755FF2046FCF791F920449DF846
:10457000282044A1FBF74CFF2046FCF788F9204493
:10458000BDF85C2043A1FBF743FF2046FCF77FF911
:104590002044BDF85E2045A1FBF73AFF2046FCF71A
:1045A00076F9204447A1FBF733FF21B030BD5422F8
:1045B000454903A8FCF71AFA00231A461946286849
:1045C00009F054FD97E700003C00002025303464DA
:1045D0002E253032642E2530326420253032643A64
:1045E00025303264000000000D0A7B0D0A224D6563
:1045F000737361676554797065223A224865617208
:104600007462656174222C0D0A00000022446576F4
:104610006963654944223A22546578745F323032C6
:104620003630313237222C0D0A000000224E756DD3
:10463000626572223A2248445931303033222C0DBF
:104640000A00000022534E223A22303634313130F3
:1046500030333032222C0D0A000000002254696DE4
:1046600065223A222573222C0D0A00002253746120
:10467000747573223A224F6E6C696E65222C0D0A96
:10468000000000002242617474657279223A256448
:104690002C0D0A00224163714672657175656E6367
:1046A00079223A25642C0D0A000000002255706C16
:1046B0006F61644672657175656E6379223A25642F
:1046C0000D0A00007D0D0A006C02002008B509F0FB
:1046D000FBFE0A4D0A4C4FF480760090294668464E
:1046E00008F046FE31460748FFF7F4FE94F8500004
:1046F0000028F3D0A26D03489047EFE738B50300D8
:10470000A0000020D40A002010B50446002101F0CA
:1047100065FD0021204601F073FD022005F032FA0C
:104720000121204601F05AFD022005F02BFA204617
:10473000BDE81040002101F051BD10B50446002134
:1047400001F04CFD0121204601F05AFD022005F048
:1047500019FA0121204601F041FD022005F012FA6C
:104760002046BDE81040002101F038BD1CB50446CC
:10477000C068012101F0BAFC01208DF804008DF819
:10478000060003218DF805108DF807006089009060
:1047900069466068FFF76EFA2089009069462068D4
:1047A000FFF768FA0121204601F018FD012120469B
:1047B00001F026FD1CBD70B506460024012101F064
:1047C0001FFD00250021304601F008FD022005F004
:1047D000D9F90121304601F001FD6006040E304692
:1047E00001F005FD08B144F00104012005F0CAF90B
:1047F0006D1CEDB2082DE5D30021304601F0EEFC32
:10480000204670BD70B50D460646002101F0E6FC5D
:104810000024E909304601F0F3FC6806050E022089
:1048200005F0B0F90121304601F0D8FC022005F076
:10483000A9F90021304601F0D1FC022005F0A2F9CF
:10484000641C082CE5DB70BD10B50446012101F0A5
:10485000D7FC0121204601F0C1FC022005F092F9AD
:104860000021204601F0CCFC012005F08BF9204608
:10487000BDE81040002101F0B1BC10B50446002194
:1048800001F0ACFC0021204601F0BAFC022005F04A
:1048900079F90121204601F0A1FC012005F072F90F
:1048A0002046BDE81040012101F0AABC70B50546C4
:1048B0000024012101F0A4FC012005F063F901218D
:1048C000284601F08BFC012005F05CF908E0641C2F
:1048D000E4B2FA2C04D92846FFF7CFFF012070BDBF
:1048E000284601F084FC0028F1D10021284601F07F
:1048F00075FC002070BD00001CB504460021204856
:1049000000910191008902041E4802600D2242605C
:104910004022C0E902211101016101F02FFD1A4975
:1049200008680190024601E00A68019212F0450F02
:10493000FAD0012001F0DCFC20B1012001F0B0FC34
:1049400001201CBD042001F0D3FC20B1042001F0A3
:10495000A7FC03201CBD0C48243800680D2801D09A
:1049600010201CBD40F2FF5001F09AFC0648203890
:1049700000680090C0F34320207000201CBD0000A0
:10498000C401002040340020342C01407CB50121BA
:10499000202001F0ABFB01208DF8040000228DF8EF
:1049A000062003218DF80510074D4FF4C0648DF8E3
:1049B0000700009469462846FFF75CF9214628461F
:1049C000FFF7ADF97CBD000000140240FEE70000D7
:1049D000F0B587B00121022001F088FB0121080316
:1049E00001F09CFB2A4F052203213846FFF77EF990
:1049F000052204213846FFF779F905221146384689
:104A0000FFF774F902258DF80450002438208DF842
:104A1000064000908DF805508DF8074069463846ED
:104A2000FFF728F901208DF804008DF806408DF875
:104A300005506E038DF80700009669463846FFF76B
:104A400019F9ADF808404FF48270ADF80A00ADF8DE
:104A500010402802ADF812000820ADF81400ADF89F
:104A60000C40ADF80E40ADF816400720094CADF8EB
:104A7000180002A9204602F044FE0121204602F05F
:104A80002BFE31463846FFF74AF907B0F0BD00006B
:104A900000040240003001404FF480410148FFF71C
:104AA0003CB90000000402404FF480410148FFF788
:104AB00036B900000004024070B50B4C05460221D7
:104AC000204602F013FE0028F9D02946204602F0C5
:104AD00016FE0121204602F009FE0028F9D02046EA
:104AE00002F00BFEC0B270BD003001407047000004
:104AF00030B50F23C27801780125FAB1144A126843
:104B000001F1E02102F4E062C2F5E062C2F30722A3
:104B1000C2F10404D3404278A24084781C4014437C
:104B2000220181F80024007800F01F018D40400927
:104B3000800000F1E020C0F8005130BD01F01F00FE
:104B400085404809800000F1E020C0F8805130BD68
:104B50000CED00E00249084302490860704700007C
:104B60000000FA050CED00E010B5044806F067FF00
:104B7000BDE81040014807F013BA0000380D0020CE
:104B800010B5094B094A0A490A4807F069FA094869
:104B900007F0D8FE0021074807F0E4FEBDE810400A
:104BA000044806F04CBF0000B9CD080817CA080831
:104BB00030330908380D002070B52DED048B88B016
:104BC000314806F03CFF304807F0A6F90A269FED71
:104BD0002F9B9FED308B04250A242B4806F02FFFD6
:104BE00020460AF01AF9B0EE491AF0EE691A53ECB1
:104BF000112B09F08BFFB0EE481AF0EE681A53EC57
:104C0000112B0AF021F90AF0D9F8024623A102A8D3
:104C1000FBF7FEFB23491C4807F0D9F922A3202209
:104C20000A21194807F06AF92249174807F0CFF915
:104C300002AB31226421144807F060F9CDE9006528
:104C4000A3B228221021104807F064F8CDE90065CE
:104C50005023282210210C4807F0CFF80A4807F00B
:104C60009FF9A41C502CB8DD4FF4C87008F044FB29
:104C7000054807F076F90028AED1034806F0DFFEBC
:104C800008B0BDEC048B70BD380D002000000000A2
:104C90000000544000000000000059402564252514
:104CA000000000000DFF080853484F552D48445997
:104CB000000000006CF508082DE9FF4F83B0934613
:104CC000DDE913544148129E06F0B9FE3F4807F053
:104CD00023F9DFF8FCA003274FF00C084FF00E0972
:104CE0003C493A4807F073F9012E05D13AA318223E
:104CF0000221364807F002F9012D05D137A32622FB
:104D00000221324807F0FAF8012C05D134A33422ED
:104D100002212E4807F0F2F82E492C4807F057F9E7
:104D20005B460A225F21294807F0E8F8CDE90087B1
:104D3000242300225A21254807F05FF880230E2201
:104D400000212248CDF8009006F078FF25491F4841
:104D500007F03DF928220F211C48049B07F0CEF8EC
:104D60001C491A4807F033F9342223211748039BC2
:104D700007F0C4F81749154807F029F93F22002128
:104D80001248069B07F0BAF83F2237210F48109BC4
:104D900007F0B4F83F2269210C48119B07F0AEF8E8
:104DA00011490A4807F013F90A2200210748DAF8E6
:104DB000003007F0A3F8054807F0D3F800288FD19A
:104DC00007B00248BDE8F04F06F039BE380D0020AC
:104DD0004C0100206CF50808410000004200000072
:104DE00043000000240E0908E42C090838B500230C
:104DF000164C5D1E2A461946206909F015F8042252
:104E00006946082004F09AF800231A4619462069DA
:104E100009F02CF90098002816D0401C14D00CA0E2
:104E2000FBF7EAFA00232A461946206908F0FCFF3E
:104E3000002004F0A4F800231A461946206909F05E
:104E400015F911A0FBF7D8FA38BD00005C0100206D
:104E50005B4F54415D20436F6E6669726D696E678A
:104E600020737461727475702C20636C6561726953
:104E70006E6720626F6F7420636F756E7465722E3B
:104E80002E2E0D0A000000005B4F54415D2053742C
:104E9000617274757020636F6E6669726D65642EE1
:104EA0000D0A000010B5012008F06AFF044900282F
:104EB000086104D1BDE8104002A0FBF79DBA10BD07
:104EC0005C0100205B4F54415D204661696C656464
:104ED00020746F20637265617465205732355131DB
:104EE0003238206D75746578210D0A00024800780B
:104EF000002800D0012070475C0100202DE9F0411E
:104F00002DED028B84B080468EA1FBF77FFC002440
:104F1000914D002825D02C214046FBF7ADFC002800
:104F20007DD0401C064600F065FF804603F0D0FEB1
:104F300007464246314689A0FBF75EFA03F0CCFEF5
:104F400001463A468DA0FBF757FAB84507D993A01A
:104F5000FBF752FA9CA000F043FC0120F0E09FA078
:104F6000E4E0A5A14046FBF751FC4FF4803790B137
:104F7000A5A0FBF741FA00F051FCC5E902476C809F
:104F800003206C60287004B0AEA0BDEC028BBDE8BD
:104F9000F041FBF731BA0722B6A14046FBF796FC79
:104FA0009FEDB68A4FF0FF36002821D0B4A14046CD
:104FB000FBF72CFC002832D02C214046FBF75CFC90
:104FC00018B1401CFBF7D2FB06463146B0A0FBF7F8
:104FD00013FA002E7ED03146B7A0FBF70DFAC1A020
:104FE000FBF70AFAD5E90121CEA0FBF705FA98E014
:104FF0002878032868D108F107000A2202A9029044
:10500000FBF7C1FB696800292FD101466860D2A077
:10501000FBF7F2F9686800F6FF70010B00E053E05F
:10502000D6A06961FBF7E8F90024B04617E0002339
:1050300007EB043642461946286908F0F5FE30466B
:1050400003F09DFF00231A461946286909F00EF85F
:105050003346611CD5A06A69FBF7CEF9641C686908
:105060008442E4D3DCA0FBF7C7F902980A22401C73
:1050700002A90290FBF787FB02980A22401C02A9B2
:105080000290FBF780FB81B20298401C029000F076
:10509000DFFEAC68A00517D100EE104A6D68B8EECF
:1050A000400A60EE080A00EE105AB8EE401A80EE90
:1050B000810A10EE100A09F0C5FFCDE900012A4669
:1050C0002146CFA0FBF798F904B0BDEC028BBDE8F8
:1050D000F081FFE7D6A0FBF78FF9D5E9012191A078
:1050E000FBF78AF9686800B3A968814222D0DBA087
:1050F000FBF782F995ED020AB8EE400A60EE080A65
:1051000095ED010AB8EE401A80EE810A10EE100A01
:1051100009F098FF41EC100BDDA053EC102BFBF7CE
:105120006BF92C706C60AC60CEE7E5A0FBF764F91E
:105130002C70C9E7EDA0FBF75FF9FEF729FA042010
:105140002870C1E7636F6E6669672C757063686568
:10515000636B2C6F6B0000005C0100205B4F5441BF
:105160005D205365727665723A2025732028307869
:105170002530386C58290D0A000000005B4F54415F
:105180005D2043757272656E743A20257320283055
:10519000782530386C58290D0A0000005B4F5441C7
:1051A0005D204E65772076657273696F6E2120539E
:1051B00074617274696E6720757067726164652EC0
:1051C0002E2E0D0A00000000636F6E6669672C7357
:1051D00065742C7570696E0D0A0000005B4F5441B8
:1051E0005D2055702D746F2D646174652C20736B78
:1051F00069702E0D0A000000636F6E6669672C757A
:1052000070696E2C6F6B00005B4F54415D202A2A41
:105210002A205265636569766564207570696E2021
:105220004F4B2C20707265706172696E6720746FCD
:1052300020657261736520466C617368202A2A2A92
:105240000D0A00005B4F54415D2052656164792076
:10525000746F207265636569766520555046494CC8
:10526000452064617461207061636B6574732E2ED8
:105270002E0D0A00555046494C453A000000C842E0
:10528000636F6E6669672C75707374612C6F6B0049
:105290005B4F54415D205265636569766564207596
:1052A000707374612C2073746174757320636F6400
:1052B000653A2025640D0A005B4F54415D20446F20
:1052C000776E6C6F6164204641494C454421205300
:1052D000746174757320636F64653A2025640D0AE8
:1052E000000000005B4F54415D205374617475737E
:1052F00020636F6465733A20313D6E6F2066696C80
:10530000652C20323D637263206572726F722C20AF
:10531000333D74696D656F75742F6F746865720DB8
:105320000A0000005B4F54415D20446F776E6C6F44
:10533000616465643A20256C752062797465732C0C
:105340002045787065637465643A20256C75206229
:10535000797465730D0A00005B4F54415D20466906
:10536000726D776172652073697A653A20256C7574
:105370002062797465730D0A000000005B4F544190
:105380005D204E65656420746F20657261736520D1
:10539000256C7520736563746F72732028344B42DB
:1053A0002065616368290D0A000000005B4F5441CD
:1053B0005D2045726173656420736563746F72204C
:1053C000256C752F256C752061742030782530365A
:1053D0006C580D0A000000005B4F54415D202A2AE2
:1053E0002A20573235513132382065726173652079
:1053F000434F4D504C45544521202A2A2A0D0A007E
:105400005B4F54415D20446F776E6C6F61646564DF
:105410003A20256C75202F20256C752062797465E3
:10542000732028252E31662525290D0A000000004D
:105430005B4F54415D20566572696679696E6720DD
:10544000646F776E6C6F616420636F6D706C6574F0
:10545000656E6573732E2E2E0D0A00005B4F54414E
:105460005D204552524F523A20446F776E6C6F6107
:105470006420494E434F4D504C45544521205369BB
:105480007A65206D69736D61746368210D0A00008F
:105490005B4F54415D204F6E6C7920726563656986
:1054A00076656420252E31662525206F6620666985
:1054B000726D7761726520646174612E0D0A00005F
:1054C0005B4F54415D204552524F523A20496E760F
:1054D000616C6964206669726D77617265207369B9
:1054E0007A6520283029210D0A0000005B4F5441C5
:1054F0005D20446F776E6C6F616420535543434564
:105500005353212053697A6520766572696669650F
:10551000642E0D0A000000002DE9F0470746DDE982
:1055200008891F481C4615460762C0E90B38C0F8B9
:105530003490C0E909120E461AA0FAF75DFF0FB1C8
:1055400021A100E021A122A0FAF756FF0EB11EA171
:1055500000E01EA125A0FAF74FFF0DB11AA100E04F
:105560001AA128A0FAF748FF0CB117A100E017A173
:1055700029A0FAF741FFB8F1000F01D012A100E015
:1055800012A12BA0FAF738FFB9F1000F01D00EA13C
:1055900000E00EA1BDE8F0472CA0FAF72DBF0000F7
:1055A0005C0100205B4F54415D205461736B2068A7
:1055B000616E646C6573207265676973746572658A
:1055C000643A0D0A00000000594553004E4F000098
:1055D0005B4F54415D2020202D204163717569731C
:1055E0006974696F6E3A2025730D0A005B4F544150
:1055F0005D2020202D2055706C6F61643A2025734A
:105600000D0A00005B4F54415D2020202D204150A9
:10561000503A2025730D0A005B4F54415D20202035
:105620002D204F4C45443A2025730D0A0000000000
:105630005B4F54415D2020202D20486561727462CB
:105640006561743A2025730D0A0000005B4F5441D8
:105650005D2020202D205761746368646F673A20B5
:1056600025730D0A0000000010B519A0FAF7C4FE5A
:105670001F4C206A20B108F02DF81EA0FAF7BCFEDE
:10568000606A20B108F026F824A0FAF7B5FEA06AF7
:1056900020B108F01FF829A0FAF7AEFEE06A20B1A9
:1056A00008F018F82DA0FAF7A7FE206B20B108F03B
:1056B00011F832A0FAF7A0FE606B20B108F00AF8EA
:1056C00037A0FAF799FEBDE810403EA0FAF794BE65
:1056D0005B4F54415D20526573756D696E67206F35
:1056E00074686572207461736B732E2E2E0D0A0020
:1056F0005C0100205B4F54415D2020202D20416340
:10570000717569736974696F6E207461736B20724F
:105710006573756D65640D0A000000005B4F5441B0
:105720005D2020202D2055706C6F616420746173A2
:105730006B20726573756D65640D0A005B4F544193
:105740005D2020202D20415050207461736B207209
:105750006573756D65640D0A000000005B4F544170
:105760005D2020202D204F4C4544207461736B2018
:10577000726573756D65640D0A0000005B4F5441DE
:105780005D2020202D20486561727462656174205F
:105790007461736B20726573756D65640D0A00002A
:1057A0005B4F54415D2020202D2057617463686455
:1057B0006F67207461736B20726573756D65640D1E
:1057C0000A0000005B4F54415D20416C6C20746105
:1057D000736B7320726573756D65642E0D0A00001E
:1057E00070B5002816D004460B4D0AE080212846EB
:1057F00002F00EFD0028F9D02178284602F0A0FD25
:10580000641C20780028F1D14021284602F000FDD8
:105810000028F9D070BD0000004C004010B519A060
:10582000FAF7EAFD244C206A20B108F023F823A0FF
:10583000FAF7E2FD606A20B108F01CF829A0FAF737
:10584000DBFDA06A20B108F015F82FA0FAF7D4FD0F
:10585000E06A20B108F00EF833A0FAF7CDFD206B16
:1058600020B108F007F838A0FAF7C6FD606B20B148
:1058700008F000F83EA0FAF7BFFDBDE8104045A0D3
:10588000FAF7BABD5B4F54415D2053757370656E76
:1058900064696E67206F74686572207461736B73DE
:1058A00020666F72204F5441207570677261646585
:1058B0002E2E2E0D0A0000005C0100205B4F54418B
:1058C0005D2020202D204163717569736974696FB3
:1058D0006E207461736B2073757370656E6465649C
:1058E0000D0A00005B4F54415D2020202D20557093
:1058F0006C6F6164207461736B2073757370656E77
:105900006465640D0A0000005B4F54415D20202057
:105910002D20415050207461736B20737573706536
:105920006E6465640D0A00005B4F54415D202020C9
:105930002D204F4C4544207461736B207375737038
:10594000656E6465640D0A005B4F54415D20202044
:105950002D20486561727462656174207461736B97
:105960002073757370656E6465640D0A0000000035
:105970005B4F54415D2020202D2057617463686483
:105980006F67207461736B2073757370656E6465E7
:10599000640D0A005B4F54415D20416C6C206E6FBA
:1059A0006E2D637269746963616C207461736B73CB
:1059B0002073757370656E6465642E0D0A000000B7
:1059C0001CB55F4C4FF47A784FF0FF3700262078F3
:1059D00005287CD2DFE800F003161843520008F0D7
:1059E00073FDE16B47F23052411A914208D9E063EE
:1059F00054A0FAF701FD60A0FFF7F2FE012020702D
:105A0000404620E064201EE0D4E9051088421DD203
:105A10004FF4803101EB003500233A4619462069E6
:105A200008F002FA284603F0AAFA00231A4619469B
:105A3000206908F01BFBA16955A0491CA16162699E
:105A4000FAF7DAFC322007F057FCC0E75948FAF7BA
:105A5000D3FC0320207008F037FDE061B7E708F0C1
:105A600033FDE169401A4EF660218842CAD952A03E
:105A7000FAF7C2FCFFF7F8FD2670C3E758A0FAF763
:105A8000BBFC00233A461946206908F0CDF90020F6
:105A900003F075FA5D4D042269460020009503F07D
:105AA00023FA042201A90020019603F047FA019984
:105AB000A9420DD02A465648FAF79EFC002003F072
:105AC0005EFA04226946002003F00EFA03E035E096
:105AD00050A0FAF791FC00231A461946206908F0F5
